:100000000C9463000C948B000C948B000C948B006C
:100010000C948B000C948B000C948B000C948B0034
:100020000C948B000C948B000C948B000C948B0024
:100030000C948B000C948B000C948B000C948B0014
:100040000C94B2040C948B000C948B000C948B00D9
:100050000C948B000C948B000C948B000C948B00F4
:100060000C948B000C948B000000000024002700EF
:100070002A000000000023002600290000000008DC
:10008000000201000003040700000000000000005F
:10009000010204081020408001020408102001021F
:1000A0000408102000000000250028002B00040494
:1000B0000404040404040202020202020303030310
:1000C00003039D061B0711241FBECFEFD8E0DEBF40
:1000D000CDBF11E0A0E0B1E0ECE9F1E102C0059094
:1000E0000D92AA34B107D9F721E0AAE4B1E001C02A
:1000F0001D92AB3AB207E1F710E0C2E6D0E004C0CF
:100100002197FE010E948F07C136D107C9F70E94CF
:10011000FC040C94C1080C9400001F93CF93DF9350
:1001200011E0180F209173011217A1F1C091740111
:10013000D0917501215070E060E061F08F3FF1F4E3
:1001400030E050E040E06FEF7FEF80E090E00E9411
:100150002B07B901FE0140916F0150917001CF0151
:100160008C1B9D0B8417950798F44081469FC00116
:10017000479F900D112490833196EDCF812F90E011
:10018000982F88270197622F70E00E947B07E2CFAB
:1001900010937301DF91CF911F910895BF92CF9279
:1001A000DF92EF92FF920F931F93CF93DF93AB01F8
:1001B000BC01F82EE52E872F9927AA27BB27B82E3A
:1001C000FC0130E020E0D42E80916D0190916E0111
:1001D0002817390708F04EC01D2DB09173010E2D60
:1001E000CF2CBB2361F0FB9EC0011124C92EBE9D04
:1001F000C0011124092FB49FC0011124192FA0910F
:1002000079018091740190917501C0917601AC13D0
:100210001CC0D901AA0FBB1FA20FB31F8A0F9B1FBF
:10022000A0917601A80FB92FB11DCC92A0917701B2
:10023000A80FB92FB11D0C93A0917801A80FB92F69
:10024000B11D1C932F5F3F4FBFCFE901CC0FDD1FC6
:10025000CC0FDD1F8C0F9D1FCB2DBB2331F0BE9F1C
:10026000E001BF9FD00D1124CD2FA80FB92FB11DD4
:10027000CC93D6CFDF91CF911F910F91FF90EF904C
:10028000DF90CF90BF900895AF92BF92CF92DF9250
:10029000EF92FF920F931F93CF93DF936C017B013B
:1002A0008B01040F151FEB015E01AE18BF08C017CC
:1002B000D10759F06991D601ED91FC910190F0813F
:1002C000E02DC6010995892B79F7C501DF91CF9102
:1002D0001F910F91FF90EF90DF90CF90BF90AF9064
:1002E0000895833081F028F4813099F08230A9F0AC
:1002F00008958730A9F08830C9F08430B1F4809136
:1003000080008F7D03C0809180008F778093800074
:10031000089584B58F7784BD089584B58F7DFBCF14
:100320008091B0008F778093B00008958091B000E5
:100330008F7DF9CFCF93DF93282F30E0F901E45878
:10034000FF4F8491F901E057FF4FD491F901E25535
:10035000FF4FC491CC23A1F081110E947101EC2FB9
:10036000F0E0EE0FFF1FEE58FF4FA591B491EC9116
:10037000ED2381E090E009F480E0DF91CF910895D2
:1003800080E090E0FACF1F93CF93DF93282F30E0E7
:10039000F901E458FF4F8491F901E057FF4FD491E0
:1003A000F901E255FF4FC491CC23A9F0162F81111A
:1003B0000E947101EC2FF0E0EE0FFF1FEC55FF4F94
:1003C000A591B4918FB7F894EC91111108C0D09514
:1003D000DE23DC938FBFDF91CF911F910895DE2B39
:1003E000F8CFCF93DF9390E0FC01E057FF4F2491CB
:1003F00082559F4FFC0184918823D1F090E0880FB3
:10040000991FFC01E859FF4FA591B491FC01EC55EF
:10041000FF4FC591D49161110EC09FB7F8948C9194
:10042000E22FE0958E238C932881E223E8839FBFFF
:10043000DF91CF9108958FB7F894EC91E22BEC9374
:100440008FBFF6CF3FB7F894809167019091680114
:10045000A0916901B0916A0126B5A89B05C02F3F04
:1004600019F00196A11DB11D3FBFBA2FA92F982FDA
:100470008827BC01CD01620F711D811D911D42E0D5
:10048000660F771F881F991F4A95D1F708950F931C
:100490001F93CF93DF93CDB7DEB729970FB6F894AC
:1004A000DEBF0FBECDBF8091740190917501892B85
:1004B00009F47CC00E94220200917A0110917B0114
:1004C00020917C0130917D016017710782079307AD
:1004D00040F460937A0170937B0180937C01909348
:1004E0007D0100917A0110917B0120917C01309176
:1004F0007D01601B710B820B930B6C327140810587
:100500009105C0F2F89480916F01909170019A83E7
:100510008983E0917401F0917501DF01119680816A
:10052000898790916B01E0917E01F0917F0180912C
:100530008001992309F445C09081982B9887908178
:10054000809589238F838F818C8388E08B83588566
:100550006F8149853B812C8189819A81508347FD38
:10056000252F3A952083262F39F0441F00C0000024
:100570006083000000C0F2CF38E04D91608300003E
:10058000019761F7F0937F01E0937E0149873B83F8
:100590002C839A83898378940E94220260937A0143
:1005A00070937B0180937C0190937D0129960FB617
:1005B000F894DEBF0FBECDBFDF91CF911F910F9199
:1005C00008959081982B98879081809589238F83B7
:1005D0008F818E8388E08D8358856F8149853D8129
:1005E0002E8189819A81508347FD252F00C000C04C
:1005F000208300C000C000C000C000C060830000B5
:10060000262F3A9541F0441F000000C000C000C0F2
:1006100000C000C0E8CF38E04D9100C0608300C04A
:10062000019709F7F0937F01E0937E0149873D83AD
:100630002E83AFCF089590E080E008956115710595
:1006400079F0FB0101900020E9F73197AF01461BDB
:10065000570BDC01ED91FC910280F381E02D0994B0
:1006600090E080E00895CF93DF93EC0160E08E810D
:100670000E94C30161E08E810E94C30160E08E810F
:100680000E94C3018BE891E00197F1F7DF91CF91D0
:100690000895CF92DF92EF92FF920F931F93CF9323
:1006A000DF936C017C0187E0E80EF11CD0E0C0E034
:1006B000062F10E0B8010C2E02C0759567950A94BC
:1006C000E2F76170F70181917F010E94C3012196D9
:1006D000C430D10579F7C601DF91CF911F910F91F9
:1006E000FF90EF90DF90CF900C943303CF92DF9286
:1006F000EF92FF920F931F93CF93DF93EC01F62EAF
:10070000642F8C810E94C3018D818F3F19F060E0BE
:100710000E94C3010F2D10E08F8584FF25C06E015C
:1007200087E0C80ED11CF12CE12CB8010E2C02C0C0
:10073000759567950A94E2F76170F60181916F01F2
:100740000E94C301FFEFEF1AFF0A88E0E816F104E8
:1007500061F7CE01DF91CF911F910F91FF90EF9044
:10076000DF90CF900C943303B80184E075956795C2
:100770008A95E1F7CE010E9449036F2DCE01DF91EA
:10078000CF911F910F91FF90EF90DF90CF900C943D
:10079000490341E00E94760381E090E0089540E043
:1007A0000C9476030F931F93CF93DF93EC01623089
:1007B00019F48F8588608F876B8B1C8A80E48D8B02
:1007C00080E18E8B80E58F8B61E08C810E94F1014E
:1007D0008D818F3F19F061E00E94F10161E08E810F
:1007E0000E94F1018E0198012C1B3D0B8F8584FD29
:1007F0000DC084E090E00F5F1F4F281739074CF4BD
:1008000061E0F80186810E94F101EDCF88E090E07F
:10081000F2CF8BE39DE00197F1F760E08C810E94BD
:10082000C30160E08E810E94C3018D818F3F19F06A
:1008300060E00E94C3016F8564FD39C063E0CE01B2
:100840000E9449030BE416E4C8010197F1F763E045
:10085000CE010E944903C8010197F1F763E0CE0180
:100860000E94490383E592E00197F1F762E0CE012F
:100870000E9449036F856062CE010E94CF0384E02D
:10088000888B6CE0CE010E94CF0361E0CE010E9414
:10089000CF038BE39FE10197F1F782E0898B66E05C
:1008A000CE01DF91CF911F910F910C94CF03606225
:1008B000CE010E94CF038BE496E40197F1F76F8598
:1008C0006062CE010E94CF0383E592E00197F1F7C9
:1008D0006F856062CE010E94CF03CCCF61E0809132
:1008E0008101909182010E94CF038BE39FE10197E8
:1008F000F1F78091810190918201E1E0DC01539652
:100900002C912111E0E0E195E80FF92FF11D6489A8
:1009100060680E94CF0361E271E080918101909153
:1009200082010E941E038091810190918201DC016D
:100930005396EC91E230A0F4E150E80FF92FF11D4D
:10094000648960680E94CF03E0919F01F091A0014B
:100950006181728180918101909182010C941E03CA
:10096000E1E0EBCF1F920F920FB60F9211242F935D
:100970003F938F939F93AF93BF9380916301909127
:100980006401A0916501B09166013091620123E09C
:10099000230F2D3758F50196A11DB11D209362013B
:1009A0008093630190936401A0936501B093660105
:1009B0008091670190916801A0916901B0916A01ED
:1009C0000196A11DB11D8093670190936801A093CA
:1009D0006901B0936A01BF91AF919F918F913F914F
:1009E0002F910F900FBE0F901F90189526E8230FA0
:1009F0000296A11DB11DD2CF789484B5826084BDCA
:100A000084B5816084BD85B5826085BD85B5816012
:100A100085BD80916E00816080936E001092810090
:100A2000809181008260809381008091810081604B
:100A3000809381008091800081608093800080910C
:100A4000B10084608093B1008091B0008160809398
:100A5000B00080917A00846080937A0080917A005F
:100A6000826080937A0080917A00816080937A001E
:100A700080917A00806880937A001092C100D090B3
:100A80008301CD2D0D2C000CDD0BE090A101F09029
:100A9000A2018701000F111F000F111FC8010E9442
:100AA0009507009721F410E000E0F12CE12CFE0105
:100AB000E255FF4FE491F0E0EE0FFF1FEC55FF4FC2
:100AC00045915491FE01E057FF4FE49121E02093BE
:100AD0006B0110926C01F0926E01E0926D01109327
:100AE000700100936F01D0937201C0937101109255
:100AF0007301909375018093740120937601109295
:100B0000770122E02093780123E02093790110926D
:100B10007A0110927B0110927C0110927D0150931A
:100B20007F0140937E01E09380010E943108D7FD50
:100B300004C060E08D2D0E94F10160E0809185018C
:100B40000E94F10160E0809184010E94F10160E067
:100B5000809186010E94F10162E080918101909173
:100B600082010E94D20361E0809187010E94F1011D
:100B7000C091870161E08C2F0E94F10160E08C2F11
:100B80000E94C301809171019091720197FD08C08C
:100B900061E00E94F10160E0809171010E94C30157
:100BA00081E080936C010E9447028091A5010E9420
:100BB0008D000E946E0488248A9453E0952EA12C07
:100BC000B12CCC24C394C0E0D0E0DD24D3940CE954
:100BD00011E060E9E62E61E0F62E809186018E300C
:100BE00008F08E508770806480937C0080917A003A
:100BF000806480937A0080917A0086FDFCCF2091FA
:100C0000780030917900AFEFB0E00E946C07A50149
:100C100094010E942B078091A5018217130639F0D9
:100C20002093A501822F0E948D000E94470280918F
:100C300085010E949A012091A60118161906DCF47C
:100C400080918E01D0928E018823C1F0222369F019
:100C5000809184010E949A01181619066CF5809102
:100C60008F01D0928F01882351F1209709F4B5CFDD
:100C70000E940000B2CF10928E01E8CF2C25209365
:100C8000A6012223A1F0F092A001E0929F01E09141
:100C90009F01F091A0018081823009F444C020F5C9
:100CA0008823A9F18130D1F10E946E04DECF109328
:100CB000A00100939F01EBCF10928F01D6CFE0915E
:100CC0009F01F091A001808190E0019683709927A7
:100CD0009C01220F331F820F931F80579E4F9093CA
:100CE000A00180939F01D3CF833011F18430E1F6CE
:100CF00040916F015091700170E060E0809174014B
:100D0000909175010E94BA080E944702CDCF60E021
:100D100070E08FEF90E00E94CE00F6CF60E07FEFB2
:100D200080E090E0F8CF6FEF70E080E090E0F3CFEC
:100D300060E070E080E09FEFEECFAF92BF92CF9285
:100D4000DF92EF92FF920F931F93CF93DF930AE40A
:100D500011E0F8011382128289E191E0918380838E
:100D60008CE0A82EA4828FEF85839BE0B92EB682FB
:100D700025E0C22EC78234E0D32ED08643E0E42E95
:100D8000E18652E0F52EF2861386148615861686C5
:100D9000178661E0C8010E94D203CBE6D1E081E072
:100DA000888319821B821A821D821C822FEF3FEFDB
:100DB0003F832E8318861A8619868B871C86FD86AC
:100DC0008E871F86188A198A1A8A1F8B0E8B9AE0C3
:100DD000988F99E0998F98E09A8F9EE09B8F9FE083
:100DE0009C8FAD8EBE8ECF8ED8A2E9A2FAA21BA296
:100DF0001CA2E6E0F1E0A0E9B1E001900D929A9525
:100E0000E1F747E750E060E070E04EAB5FAB68AF02
:100E100079AF8BAF8CE991E09DAB8CAB80E28AAF70
:100E2000DF91CF911F910F91FF90EF90DF90CF90C6
:100E3000BF90AF90089580917401909175010E94C8
:100E40003108809171019091720197FD03C060E0BB
:100E50000C94F1010895052E97FB1EF400940E9456
:100E6000420757FD07D00E944A0707FC03D04EF403
:100E70000C94420750954095309521953F4F4F4F28
:100E80005F4F089590958095709561957F4F8F4F36
:100E90009F4F0895A1E21A2EAA1BBB1BFD010DC096
:100EA000AA1FBB1FEE1FFF1FA217B307E407F5071A
:100EB00020F0A21BB30BE40BF50B661F771F881FF6
:100EC000991F1A9469F760957095809590959B018C
:100ED000AC01BD01CF010895A29FB001B39FC00135
:100EE000A39F700D811D1124911DB29F700D811D56
:100EF0001124911D0895AA1BBB1B51E107C0AA1F15
:100F0000BB1FA617B70710F0A61BB70B881F991FAA
:100F10005A95A9F780959095BC01CD010895EE0FE3
:100F2000FF1F0590F491E02D09940F931F93CF9329
:100F3000DF938230910510F482E090E0E091A90106
:100F4000F091AA0130E020E0B0E0A0E0309799F401
:100F50002115310509F44AC0281B390B243031050D
:100F6000D8F58A819B816115710589F1FB01938315
:100F70008283FE0111C04081518102811381481793
:100F80005907E0F04817590799F4109761F0129645
:100F90000C93129713961C933296CF01DF91CF9149
:100FA0001F910F9108950093A9011093AA01F4CF06
:100FB0002115310551F04217530738F0A901DB0123
:100FC0009A01BD01DF01F801C1CFEF01F9CF909384
:100FD000AA018093A901CDCFFE01E20FF31F8193F7
:100FE00091932250310939832883D7CF2091A701CB
:100FF0003091A801232B41F420910201309103018B
:101000003093A8012093A7012091000130910101A4
:101010002115310541F42DB73EB74091040150919F
:101020000501241B350BE091A701F091A801E217FF
:10103000F307A0F42E1B3F0B2817390778F0AC01FB
:101040004E5F5F4F2417350748F04E0F5F1F5093D8
:10105000A8014093A701819391939FCFF0E0E0E036
:101060009CCFCF93DF930097E9F0FC013297138276
:101070001282A091A901B091AA01ED0130E020E017
:101080001097A1F420813181820F931F2091A70135
:101090003091A8012817390709F061C0F093A80121
:1010A000E093A701DF91CF910895EA01CE17DF0702
:1010B000E8F54A815B819E0141155105B1F7E901CF
:1010C000FB83EA8349915991C40FD51FEC17FD07A3
:1010D00061F4808191810296840F951FE9019983C3
:1010E0008883828193819B838A83F0E0E0E012967B
:1010F0008D919C9113970097B9F52D913C91119783
:10110000CD010296820F931F2091A7013091A80173
:101110002817390739F6309751F51092AA01109225
:10112000A901B093A801A093A701BCCFD383C28328
:1011300040815181840F951FC817D90761F44E5F14
:101140005F4F88819981480F591F518340838A815D
:101150009B81938382832115310509F0B0CFF093F1
:10116000AA01E093A9019ECFFD01DC01C0CF13824B
:101170001282D7CFDC0101C06D9341505040E0F79F
:10118000089510E0C2E6D0E004C0FE010E948F077F
:0C1190002196C336D107C9F7F894FFCFB1
:10119C000000AB018000003001013401023A010370
:1011AC003F0104450100000000C90344011B031A60
:1011BC00034445534B204C4544204C49474854006C
:1011CC0052656400477265656E00426C7565005728
:0A11DC0068697465004F6666000044
:00000001FF
