:100000000C9463000C948B000C948B000C948B006C
:100010000C948B000C948B000C948B000C948B0034
:100020000C948B000C948B000C948B000C948B0024
:100030000C948B000C948B000C948B000C948B0014
:100040000C94B3060C948B000C9481060C945B0604
:100050000C948B000C948B000C948B000C948B00F4
:100060000C948B000C948B000000000024002700EF
:100070002A000000000023002600290000000008DC
:10008000000201000003040700000000000000005F
:10009000010204081020408001020408102001021F
:1000A0000408102000000000250028002B00040494
:1000B0000404040404040202020202020303030310
:1000C0000303FD06550911241FBECFEFD8E0DEBFA4
:1000D000CDBF11E0A0E0B1E0E8E3F6E102C0059099
:1000E0000D92A838B107D9F722E0A8E8B1E001C025
:1000F0001D92A938B207E1F710E0C2E6D0E004C0D3
:100100002197FE010E94DD09C136D107C9F70E947F
:10011000A8070C940F0B0C9400001F93CF93DF9350
:1001200011E0180F209136021217A1F1C091370289
:10013000D0913802215070E060E061F08F3FF1F41F
:1001400030E050E040E06FEF7FEF80E090E00E9411
:100150006509B901FE014091320250913302CF018D
:100160008C1B9D0B8417950798F44081469FC00116
:10017000479F900D112490833196EDCF812F90E011
:10018000982F88270197622F70E00E94B509E2CF6F
:1001900010933602DF91CF911F910895BF92CF92B5
:1001A000DF92EF92FF920F931F93CF93DF93AB01F8
:1001B000BC01F82EE52E872F9927AA27BB27B82E3A
:1001C000FC0130E020E0D42E809130029091310289
:1001D0002817390708F04EC01D2DB09136020E2D9C
:1001E000CF2CBB2361F0FB9EC0011124C92EBE9D04
:1001F000C0011124092FB49FC0011124192FA0910F
:100200003C028091370290913802C0913902AC13C0
:100210001CC0D901AA0FBB1FA20FB31F8A0F9B1FBF
:10022000A0913902A80FB92FB11DCC92A0913A022A
:10023000A80FB92FB11D0C93A0913B02A80FB92FA5
:10024000B11D1C932F5F3F4FBFCFE901CC0FDD1FC6
:10025000CC0FDD1F8C0F9D1FCB2DBB2331F0BE9F1C
:10026000E001BF9FD00D1124CD2FA80FB92FB11DD4
:10027000CC93D6CFDF91CF911F910F91FF90EF904C
:10028000DF90CF90BF900895FC01538D448D252FB2
:1002900030E0842F90E0821B930B541710F0CF9620
:1002A000089501970895FC01918D828D981761F052
:1002B000A28DAE0FBF2FB11D5D968C91928D9F5F69
:1002C0009F73928F90E008958FEF9FEF0895FC0148
:1002D000918D828D981731F0828DE80FF11D858DFB
:1002E00090E008958FEF9FEF0895FC01918D228D8E
:1002F000892F90E0805C9F4F821B91098F73992713
:100300000895FC01A48DA80FB92FB11DA35ABF4FAA
:100310002C91848D90E001968F739927848FA68904
:10032000B7892C93A089B1898C91837080648C9358
:10033000938D848D981306C00288F389E02D808107
:100340008F7D80830895EF92FF920F931F93CF9339
:10035000DF93EC0181E0888F9B8D8C8D98131AC000
:10036000E889F989808185FF15C09FB7F894EE89E7
:10037000FF896083E889F989808183708064808344
:100380009FBF81E090E0DF91CF911F910F91FF908F
:10039000EF900895F62E0B8D10E00F5F1F4F0F7337
:1003A0001127E02E8C8D8E110CC00FB607FCFACFF2
:1003B000E889F989808185FFF5CFCE010E9481010E
:1003C000F1CFEB8DEC0FFD2FF11DE35AFF4FF082C3
:1003D0009FB7F8940B8FEA89FB8980818062CFCF29
:1003E000CF93DF93EC01888D8823B9F0AA89BB896C
:1003F000E889F9898C9185FD03C0808186FD0DC057
:100400000FB607FCF7CF8C9185FFF2CF808185FF77
:10041000EDCFCE010E948101E9CFDF91CF91089508
:1004200081E991E00E94750121E0892B09F420E027
:10043000822F089580E090E0892B29F00E9410021D
:1004400081110C9400000895AF92BF92CF92DF9279
:10045000EF92FF920F931F93CF93DF936C017B0179
:100460008B01040F151FEB015E01AE18BF08C0170A
:10047000D10759F06991D601ED91FC910190F0817D
:10048000E02DC6010995892B79F7C501DF91CF9140
:100490001F910F91FF90EF90DF90CF90BF90AF90A2
:1004A0000895833081F028F4813099F08230A9F0EA
:1004B00008958730A9F08830C9F08430B1F4809174
:1004C00080008F7D03C0809180008F7780938000B3
:1004D000089584B58F7784BD089584B58F7DFBCF53
:1004E0008091B0008F778093B00008958091B00024
:1004F0008F7DF9CFCF93DF93282F30E0F901E458B7
:10050000FF4F8491F901E057FF4FD491F901E25573
:10051000FF4FC491CC23A1F081110E945102EC2F16
:10052000F0E0EE0FFF1FEE58FF4FA591B491EC9154
:10053000ED2381E090E009F480E0DF91CF91089510
:1005400080E090E0FACF1F93CF93DF93282F30E025
:10055000F901E458FF4F8491F901E057FF4FD4911E
:10056000F901E255FF4FC491CC23A9F0162F811158
:100570000E945102EC2FF0E0EE0FFF1FEC55FF4FF1
:10058000A591B4918FB7F894EC91111108C0D09552
:10059000DE23DC938FBFDF91CF911F910895DE2B77
:1005A000F8CFCF93DF9390E0FC01E057FF4F249109
:1005B00082559F4FFC0184918823D1F090E0880FF1
:1005C000991FFC01E859FF4FA591B491FC01EC552E
:1005D000FF4FC591D49161110EC09FB7F8948C91D3
:1005E000E22FE0958E238C932881E223E8839FBF3E
:1005F000DF91CF9108958FB7F894EC91E22BEC93B3
:100600008FBFF6CF3FB7F89480918D0190918E0106
:10061000A0918F01B091900126B5A89B05C02F3FF6
:1006200019F00196A11DB11D3FBFBA2FA92F982F18
:100630008827BC01CD01620F711D811D911D42E013
:10064000660F771F881F991F4A95D1F708950F935A
:100650001F93CF93DF93CDB7DEB729970FB6F894EA
:10066000DEBF0FBECDBF8091370290913802892B3B
:1006700009F47CC00E94020300913D0210913E02E9
:1006800020913F0230914002601771078207930763
:1006900040F460933D0270933E0280933F0290933A
:1006A000400200913D0210913E0220913F023091A4
:1006B0004002601B710B820B930B6C327140810501
:1006C0009105C0F2F89480913202909133029A839E
:1006D0008983E0913702F0913802DF011196808121
:1006E000898790912E02E0914102F091420280911F
:1006F0004302992309F445C09081982B98879081F3
:10070000809589238F838F818C8388E08B835885A4
:100710006F8149853B812C8189819A81508347FD76
:10072000252F3A952083262F39F0441F00C0000062
:100730006083000000C0F2CF38E04D91608300007C
:10074000019761F7F0934202E093410249873B83AE
:100750002C839A83898378940E94020360933D02DC
:1007600070933E0280933F029093400229960FB609
:10077000F894DEBF0FBECDBFDF91CF911F910F91D7
:1007800008959081982B98879081809589238F83F5
:100790008F818E8388E08D8358856F8149853D8167
:1007A0002E8189819A81508347FD252F00C000C08A
:1007B000208300C000C000C000C000C060830000F3
:1007C000262F3A9541F0441F000000C000C000C031
:1007D00000C000C0E8CF38E04D9100C0608300C089
:1007E000019709F7F0934202E093410249873D8364
:1007F0002E83AFCF089590E080E00895CF93DF93EC
:10080000EC0160E08E810E94A30261E08E810E9473
:10081000A30260E08E810E94A3028BE891E0019721
:10082000F1F7DF91CF910895CF92DF92EF92FF928F
:100830000F931F93CF93DF936C017C0187E0E80E49
:10084000F11CD0E0C0E0062F10E0B8010C2E02C071
:10085000759567950A94E2F76170F70181917F01C0
:100860000E94A3022196C430D10579F7C601DF9119
:10087000CF911F910F91FF90EF90DF90CF900C944C
:10088000FE03CF92DF92EF92FF920F931F93CF93CD
:10089000DF93EC01F62E642F8C810E94A3028D81E0
:1008A0008F3F19F060E00E94A3020F2D10E08F85AA
:1008B00084FF25C06E0187E0C80ED11CF12CE12C0D
:1008C000B8010E2C02C0759567950A94E2F7617025
:1008D000F60181916F010E94A302FFEFEF1AFF0A58
:1008E00088E0E816F10461F7CE01DF91CF911F9106
:1008F0000F91FF90EF90DF90CF900C94FE03B80122
:1009000084E0759567958A95E1F7CE010E941404FD
:100910006F2DCE01DF91CF911F910F91FF90EF903E
:10092000DF90CF900C94140441E00E94410481E0D8
:1009300090E0089540E00C9441040F931F93CF93EF
:10094000DF93EC01623019F48F8588608F876B8BA1
:100950001C8A80E48D8B80E18E8B80E58F8B61E03B
:100960008C810E94D1028D818F3F19F061E00E943D
:10097000D10261E08E810E94D1028E0198012C1B70
:100980003D0B8F8584FD0DC084E090E00F5F1F4F0D
:10099000281739074CF461E0F80186810E94D102E2
:1009A000EDCF88E090E0F2CF8BE39DE00197F1F787
:1009B00060E08C810E94A30260E08E810E94A3020D
:1009C0008D818F3F19F060E00E94A3026F8564FD66
:1009D00039C063E0CE010E9414040BE416E4C801A0
:1009E0000197F1F763E0CE010E941404C80101975A
:1009F000F1F763E0CE010E94140483E592E00197D1
:100A0000F1F762E0CE010E9414046F856062CE01AE
:100A10000E949A0484E0888B6CE0CE010E949A04C4
:100A200061E0CE010E949A048BE39FE10197F1F708
:100A300082E0898B66E0CE01DF91CF911F910F910B
:100A40000C949A046062CE010E949A048BE496E4AE
:100A50000197F1F76F856062CE010E949A0483E5E9
:100A600092E00197F1F76F856062CE010E949A04CF
:100A7000CCCFFB0101900020E9F73197AF01461B75
:100A8000570BDC01ED91FC910280F381E02D09947C
:100A90008F929F92AF92BF92EF92FF920F931F930C
:100AA000CF93DF93CDB7DEB7A1970FB6F894DEBF33
:100AB0000FBECDBF7C01FA01CB0119A2223008F490
:100AC0002AE08E010F5D1F4F822E912CB12CA12C9C
:100AD000BF01A50194010E948409F901CA016A308D
:100AE0000CF5605DD8016E938D01232B242B252BF3
:100AF00079F790E080E0109721F0BD01C7010E94D6
:100B00003905A1960FB6F894DEBF0FBECDBFDF91B9
:100B1000CF911F910F91FF90EF90BF90AF909F905A
:100B20008F900895695CDECFFF920F931F93CF9350
:100B3000DF93E0916502F0916602A181B281ED013F
:100B400009900020E9F72197CA1B66E371E081E96B
:100B500091E00E9439054C2F50E070E060E02AE0FF
:100B600081E991E00E94480560E571E081E991E04A
:100B70000E943905CC3008F04FC020916B0230E064
:100B8000A4E6B0E00E94A6092FEF30E040E050E07C
:100B90000E946509C22F032F142FD52FF22E8091AA
:100BA000440290914502DC015396EC91E23090F5BD
:100BB000E150E80FF92FF11D6489645F60680E94BD
:100BC0009A04809144029091450225EF2C0F64E530
:100BD00071E0293528F0B9E0BF1520F063E571E038
:100BE0000E9439052AE04C2F502F612F7D2F8091D4
:100BF0004402909145020E94480566E571E08091AB
:100C0000440290914502DF91CF911F910F91FF9087
:100C10000C943905E1E0CDCFDF91CF911F910F9179
:100C2000FF90089561E080914402909145020E94F6
:100C30009A048BE39FE10197F1F780914402909130
:100C40004502E1E0DC0153962C912111E0E0E195B1
:100C5000E80FF92FF11D648960680E949A0468E525
:100C600071E080914402909145020E943905809183
:100C7000440290914502DC015396EC91E230C8F4B5
:100C8000E150E80FF92FF11D648960680E949A0411
:100C9000E0916502F09166026181728161157105D2
:100CA00031F080914402909145020E9439050C94E4
:100CB0009405E1E0E6CF1F920F920FB60F92112438
:100CC0002F933F934F935F936F937F938F939F9354
:100CD000AF93BF93EF93FF9381E991E00E9481016D
:100CE000FF91EF91BF91AF919F918F917F916F9104
:100CF0005F914F913F912F910F900FBE0F901F90DA
:100D000018951F920F920FB60F9211242F938F9365
:100D10009F93EF93FF93E091A101F091A201808155
:100D2000E091A701F091A80182FD1BC09081809104
:100D3000AA018F5F8F732091AB01821741F0E09180
:100D4000AA01F0E0EF56FE4F958F8093AA01FF9124
:100D5000EF919F918F912F910F900FBE0F901F9049
:100D600018958081F4CF1F920F920FB60F92112425
:100D70002F933F938F939F93AF93BF93809189015C
:100D800090918A01A0918B01B0918C0130918801E2
:100D900023E0230F2D3758F50196A11DB11D209397
:100DA00088018093890190938A01A0938B01B0936D
:100DB0008C0180918D0190918E01A0918F01B09155
:100DC00090010196A11DB11D80938D0190938E011C
:100DD000A0938F01B0939001BF91AF919F918F919C
:100DE0003F912F910F900FBE0F901F90189526E8FE
:100DF000230F0296A11DB11DD2CFAF92BF92CF9209
:100E0000DF92EF92FF920F931F93CF93DF93E1E96D
:100E1000F1E01382128288EE93E0A0E0B0E08483D8
:100E20009583A683B7838CE191E09183808385ECE1
:100E300090E09587848784EC90E09787868780ECA4
:100E400090E0918B808B81EC90E0938B828B82EC95
:100E500090E0958B848B86EC90E0978B868B118E3F
:100E6000128E138E148E0DE612E0F8011382128298
:100E70008EE291E0918380838CE0A82EA4828FEF94
:100E800085839BE0B92EB68225E0C22EC78234E06E
:100E9000D32ED08643E0E42EE18652E0F52EF28692
:100EA0001386148615861686178661E0C8010E948F
:100EB0009D04CEE2D2E081E0888319821B821A82EF
:100EC0001D821C822FEF3FEF3F832E8318861A86E8
:100ED00019868B871C86FD868E871F86188A198A3D
:100EE0001A8A1F8B0E8B9AE0988F98E0998F99E061
:100EF0009A8F9EE09B8F9FE09C8FAD8EBE8ECF8E93
:100F0000D8A2E9A2FAA21BA21CA292E1E6E0F1E0BB
:100F1000A3E5B2E001900D929A95E1F747E750E022
:100F200060E070E049AF5AAF6BAF7CAF8EAF82E646
:100F300092E098AF8FAB80E28DAFDF91CF911F91A0
:100F40000F91FF90EF90DF90CF90BF90AF900895FA
:100F5000789484B5826084BD84B5816084BD85B594
:100F6000826085BD85B5816085BD80916E008160A0
:100F700080936E0010928100809181008260809346
:100F80008100809181008160809381008091800048
:100F90008160809380008091B10084608093B10073
:100FA0008091B00081608093B00080917A0084606D
:100FB00080937A0080917A00826080937A00809199
:100FC0007A00816080937A0080917A0080688093B3
:100FD0007A001092C100D0904602CD2D0D2C000C4D
:100FE000DD0BE0906702F09068028701000F111F8F
:100FF000000F111FC8010E94E309009721F410E0BF
:1010000000E0F12CE12CFE01E255FF4FE491F0E00D
:10101000EE0FFF1FEC55FF4F45915491FE01E05735
:10102000FF4FE49121E020932E0210922F02F092C4
:101030003102E09230021093330200933202D093D7
:101040003502C09334021092360290933802809396
:1010500037022093390210923A0222E020933B0299
:1010600023E020933C0210923D0210923E02109227
:101070003F02109240025093420240934102E0939B
:1010800043020E947F0AD7FD04C060E08D2D0E94BC
:10109000D10260E0809148020E94D10260E080911C
:1010A00047020E94D10260E0809149020E94D10271
:1010B00062E080914402909145020E949D0461E0AB
:1010C00080914A020E94D102C0914A0261E08C2FB5
:1010D0000E94D10260E08C2F0E94A3028091340212
:1010E0009091350297FD08C061E00E94D10260E056
:1010F000809134020E94A30281E080932F020E941B
:10110000270380916B020E948D000E9412068824A2
:101110008A9453E0952EA12CB12C6624639405E0AB
:1011200010E0C0E0D0E07724739462E6E62E62E03F
:10113000F62E73E5C72E72E0D72E809149028E30CD
:1011400008F08E508770806480937C0080917A00D4
:10115000806480937A0080917A0086FDFCCF209194
:10116000780030917900AFEFB0E00E94A609A501A8
:1011700094010E94650980916B028217130649F061
:1011800020936B02822F0E948D000E9427030E94F1
:101190009405809148020E947A0220916C021816F0
:1011A000190604F580915102709251028823E9F0EA
:1011B000222369F0809147020E947A0218161906CC
:1011C00094F58091520270925202882379F120970F
:1011D00009F4B3CF0E941002882309F4AECF0E9415
:1011E0000000ABCF10925102E3CF262520936C0272
:1011F0002223A1F0D0926602C0926502E0916502BE
:10120000F09166028081823009F445C028F5882378
:10121000B1F18130D9F10E941206D9CFF092660265
:10122000E0926502EBCF10925202D1CFE0916502BD
:10123000F0916602808190E00196B8010E94C90990
:101240009C01220F331F820F931F8D5A9D4F909345
:10125000660280936502D2CF833011F18530D9F6D2
:10126000409132025091330270E060E08091370289
:10127000909138020E94080B0E942703CCCF60E0B7
:1012800070E08FEF90E00E94CE00F6CF60E07FEF3D
:1012900080E090E0F8CF6FEF70E080E090E0F3CF77
:1012A00060E070E080E09FEFEECF80913702909198
:1012B00038020E947F0A809134029091350297FD96
:1012C00003C060E00C94D1020895052E97FB1EF434
:1012D00000940E947C0957FD07D00E94840907FCF6
:1012E00003D04EF40C947C0950954095309521958F
:1012F0003F4F4F4F5F4F0895909580957095619542
:101300007F4F8F4F9F4F0895A1E21A2EAA1BBB1B40
:10131000FD010DC0AA1FBB1FEE1FFF1FA217B307C1
:10132000E407F50720F0A21BB30BE40BF50B661FD7
:10133000771F881F991F1A9469F76095709580959B
:1013400090959B01AC01BD01CF010895A29FB00112
:10135000B39FC001A39F700D811D1124911DB29FE9
:10136000700D811D1124911D0895AA1BBB1B51E115
:1013700007C0AA1FBB1FA617B70710F0A61BB70B05
:10138000881F991F5A95A9F780959095BC01CD01AA
:10139000089597FB072E16F4009407D077FD09D027
:1013A0000E94B50907FC05D03EF4909581959F4FAA
:1013B0000895709561957F4F0895EE0FFF1F05907A
:1013C000F491E02D09940F931F93CF93DF93823014
:1013D000910510F482E090E0E0918702F09188029C
:1013E00030E020E0B0E0A0E0309799F4211531051D
:1013F00009F44AC0281B390B24303105D8F58A81FD
:101400009B816115710589F1FB0193838283FE0144
:1014100011C0408151810281138148175907E0F0C2
:101420004817590799F4109761F012960C93129788
:1014300013961C933296CF01DF91CF911F910F919C
:1014400008950093870210938802F4CF2115310587
:1014500051F04217530738F0A901DB019A01BD0191
:10146000DF01F801C1CFEF01F9CF9093880280939B
:101470008702CDCFFE01E20FF31F8193919322509B
:10148000310939832883D7CF209185023091860294
:10149000232B41F420910201309103013093860205
:1014A0002093850220910001309101012115310521
:1014B00041F42DB73EB74091040150910501241B22
:1014C000350BE0918502F0918602E217F307A0F454
:1014D0002E1B3F0B2817390778F0AC014E5F5F4F8A
:1014E0002417350748F04E0F5F1F50938602409334
:1014F0008502819391939FCFF0E0E0E09CCFCF9362
:10150000DF930097E9F0FC01329713821282A091D9
:101510008702B0918802ED0130E020E01097A1F43D
:1015200020813181820F931F2091850230918602A4
:101530002817390709F061C0F0938602E09385020D
:10154000DF91CF910895EA01CE17DF07E8F54A81D0
:101550005B819E0141155105B1F7E901FB83EA83E7
:1015600049915991C40FD51FEC17FD0761F4808193
:1015700091810296840F951FE90199838883828166
:1015800093819B838A83F0E0E0E012968D919C9199
:1015900013970097B9F52D913C911197CD010296C3
:1015A000820F931F209185023091860228173907F8
:1015B00039F6309751F51092880210928702B09355
:1015C0008602A0938502BCCFD383C2834081518120
:1015D000840F951FC817D90761F44E5F5F4F88814C
:1015E0009981480F591F518340838A819B8193833E
:1015F00082832115310509F0B0CFF0938802E09382
:1016000087029ECFFD01DC01C0CF13821282D7CFAB
:10161000DC0101C06D9341505040E0F7089510E0A7
:10162000C2E6D0E004C0FE010E94DD092196C33667
:08163000D107C9F7F894FFCFC0
:10163800000089028000006701016B01027101034B
:101648007601047C0105840100000000A301240246
:101658004401F00175015301670100000000940482
:101668002402FB03FA036E722063686172732069B7
:101678006E20656666656374206E616D653A20004C
:101688000D0A0020200025004445534B204C4544BA
:10169800204C494748540052656400477265656E9E
:1016A80000426C7565005768697465005261696E1F
:0816B800626F77004F666600C7
:00000001FF
