:100000000C9463000C948B000C948B000C948B006C
:100010000C948B000C948B000C948B000C948B0034
:100020000C948B000C948B000C948B000C948B0024
:100030000C948B000C948B000C948B000C948B0014
:100040000C9473060C948B000C9441060C941B06C4
:100050000C948B000C948B000C948B000C948B00F4
:100060000C948B000C948B000000000024002700EF
:100070002A000000000023002600290000000008DC
:10008000000201000003040700000000000000005F
:10009000010204081020408001020408102001021F
:1000A0000408102000000000250028002B00040494
:1000B0000404040404040202020202020303030310
:1000C0000303BD065C0A11241FBECFEFD8E0DEBFDC
:1000D000CDBF11E0A0E0B1E0EEE2F8E102C0059092
:1000E0000D92AE35B107D9F722E0AEE5B1E001C01F
:1000F0001D92AB38B207E1F710E0C2E6D0E004C0D1
:100100002197FE010E94D80AC136D107C9F70E9483
:1001100050070C940A0C0C940000E7E6F1E0A0896B
:10012000B18982E08C93A485B5851C92A685B7859C
:100130008FEC8C93108EA489B58986E08C93A2896C
:10014000B3898C9180618C93A289B3898C918860EA
:100150008C93A289B3898C9180688C930288F389EF
:10016000E02D80818F7D808308951F93CF93DF934F
:1001700011E0180F209152021217A1F1C091530201
:10018000D0915402215070E060E061F08F3FF1F4B3
:1001900030E050E040E06FEF7FEF80E090E00E94C1
:1001A000820AB901FE0140914E0250914F02CF01E7
:1001B0008C1B9D0B8417950798F44081469FC001C6
:1001C000479F900D112490833196EDCF812F90E0C1
:1001D000982F88270197622F70E00E94B00AE2CF23
:1001E00010935202DF91CF911F910895CF92DF9229
:1001F000EF92FF920F931F932FB7F894C090630173
:10020000D0906401E0906501F09066012FBF6C0D05
:100210007D1D8E1D9F1D4FB7F894009163011091B5
:10022000640120916501309166014FBF0C151D05D9
:100230002E053F0528F0601771078207930758F7CE
:100240001F910F91FF90EF90DF90CF900895BF9294
:10025000CF92DF92EF92FF920F931F93CF93DF9392
:10026000AB01BC01F82EE52E872F9927AA27BB27C3
:10027000B82EFC0130E020E0D42E80914C02909109
:100280004D022817390708F04EC01D2DB0915202BB
:100290000E2DCF2CBB2361F0FB9EC0011124C92E73
:1002A000BE9DC0011124092FB49FC0011124192F34
:1002B000A09158028091530290915402C09155022E
:1002C000AC131CC0D901AA0FBB1FA20FB31F8A0F0A
:1002D0009B1FA0915502A80FB92FB11DCC92A091E0
:1002E0005602A80FB92FB11D0C93A0915702A80F69
:1002F000B92FB11D1C932F5F3F4FBFCFE901CC0F2A
:10030000DD1FCC0FDD1F8C0F9D1FCB2DBB2331F0CC
:10031000BE9FE001BF9FD00D1124CD2FA80FB92F94
:10032000B11DCC93D6CFDF91CF911F910F91FF904C
:10033000EF90DF90CF90BF900895AF92BF92CF9291
:10034000DF92EF92FF920F931F93CF93DF936C0195
:100350007B018B01040F151FEB015E01AE18BF0876
:10036000C017D10759F06991D601ED91FC91019028
:10037000F081E02DC6010995892B79F7C501DF9140
:10038000CF911F910F91FF90EF90DF90CF90BF9092
:10039000AF900895FC01538D448D252F30E0842FBC
:1003A00090E0821B930B541710F0CF96089501979D
:1003B0000895FC01918D828D981761F0A28DAE0F8A
:1003C000BF2FB11D5D968C91928D9F5F9F73928F11
:1003D00090E008958FEF9FEF0895FC01918D828D3D
:1003E000981731F0828DE80FF11D858D90E008950A
:1003F0008FEF9FEF0895FC01918D228D892F90E062
:10040000805C9F4F821B91098F739927089587E61F
:1004100091E00E94FB0121E0892B09F420E0822F6A
:10042000089580E090E0892B29F00E940702811155
:100430000C9400000895FC01A48DA80FB92FB11DE4
:10044000A35ABF4F2C91848D90E001968F7399270A
:10045000848FA689B7892C93A089B1898C918370E8
:1004600080648C93938D848D981306C00288F389E1
:10047000E02D80818F7D80830895EF92FF920F930E
:100480001F93CF93DF93EC0181E0888F9B8D8C8D40
:1004900098131AC0E889F989808185FF15C09FB734
:1004A000F894EE89FF896083E889F98980818370F7
:1004B000806480839FBF81E090E0DF91CF911F91A6
:1004C0000F91FF90EF900895F62E0B8D10E00F5FC7
:1004D0001F4F0F731127E02E8C8D8E110CC00FB69D
:1004E00007FCFACFE889F989808185FFF5CFCE0135
:1004F0000E941B02F1CFEB8DEC0FFD2FF11DE35A93
:10050000FF4FF0829FB7F8940B8FEA89FB898081B7
:100510008062CFCFCF93DF93EC01888D8823B9F031
:10052000AA89BB89E889F9898C9185FD03C08081FE
:1005300086FD0DC00FB607FCF7CF8C9185FFF2CF7B
:10054000808185FFEDCFCE010E941B02E9CFDF91B4
:10055000CF910895833081F028F4813099F0823072
:10056000A9F008958730A9F08830C9F08430B1F43B
:10057000809180008F7D03C0809180008F77809371
:100580008000089584B58F7784BD089584B58F7DEC
:10059000FBCF8091B0008F778093B0000895809159
:1005A000B0008F7DF9CFCF93DF93282F30E0F90192
:1005B000E458FF4F8491F901E057FF4FD491F901BE
:1005C000E255FF4FC491CC23A1F081110E94AA02F1
:1005D000EC2FF0E0EE0FFF1FEE58FF4FA591B49106
:1005E000EC91ED2381E090E009F480E0DF91CF9180
:1005F000089580E090E0FACF1F93CF93DF93282FE8
:1006000030E0F901E458FF4F8491F901E057FF4FC2
:10061000D491F901E255FF4FC491CC23A9F0162FD4
:1006200081110E94AA02EC2FF0E0EE0FFF1FEC55A3
:10063000FF4FA591B4918FB7F894EC91111108C0B8
:10064000D095DE23DC938FBFDF91CF911F9108956A
:10065000DE2BF8CFCF93DF9390E0FC01E057FF4F04
:10066000249182559F4FFC0184918823D1F090E022
:10067000880F991FFC01E859FF4FA591B491FC0127
:10068000EC55FF4FC591D49161110EC09FB7F894FE
:100690008C91E22FE0958E238C932881E223E883CE
:1006A0009FBFDF91CF9108958FB7F894EC91E22B23
:1006B000EC938FBFF6CF3FB7F89480915F01909194
:1006C0006001A0916101B091620126B5A89B05C0AF
:1006D0002F3F19F00196A11DB11D3FBFBA2FA92FC1
:1006E000982F8827BC01CD01620F711D811D911DBE
:1006F00042E0660F771F881F991F4A95D1F708952A
:100700000F931F93CF93DF93CDB7DEB729970FB623
:10071000F894DEBF0FBECDBF0E945B03009159026B
:1007200010915A0220915B0230915C0260177107B0
:100730008207930740F46093590270935A028093A2
:100740005B0290935C020091590210915A02209131
:100750005B0230915C02601B710B820B930B6C325D
:10076000714081059105C0F2F89480914E029091FC
:100770004F029A838983E0915302F0915402DF0182
:1007800011968081898790914A02E0915D02F091F3
:100790005E0280915F02992309F445C09081982BF5
:1007A00098879081809589238F838F818C8388E0BF
:1007B0008B8358856F8149853B812C8189819A8102
:1007C000508347FD252F3A952083262F39F0441F6B
:1007D00000C000006083000000C0F2CF38E04D91FF
:1007E00060830000019761F7F0935E02E0935D0281
:1007F00049873B832C839A83898378940E945B0387
:100800006093590270935A0280935B0290935C024A
:1008100029960FB6F894DEBF0FBECDBFDF91CF9102
:100820001F910F9108959081982B988790818095C2
:1008300089238F838F818E8388E08D8358856F8194
:1008400049853D812E8189819A81508347FD252FDD
:1008500000C000C0208300C000C000C000C000C0B5
:1008600060830000262F3A9541F0441F000000C02D
:1008700000C000C000C000C0E8CF38E04D9100C00B
:10088000608300C0019709F7F0935E02E0935D0278
:1008900049873D832E83AFCF089590E080E008958F
:1008A000CF93DF93EC0160E08E810E94FC0261E057
:1008B0008E810E94FC0260E08E810E94FC028BE827
:1008C00091E00197F1F7DF91CF910895CF92DF92F8
:1008D000EF92FF920F931F93CF93DF936C017C01F4
:1008E00087E0E80EF11CD0E0C0E0062F10E0B80170
:1008F0000C2E02C0759567950A94E2F76170F701B6
:1009000081917F010E94FC022196C430D10579F7C4
:10091000C601DF91CF911F910F91FF90EF90DF9073
:10092000CF900C945004CF92DF92EF92FF920F93EE
:100930001F93CF93DF93EC01F62E642F8C810E94DE
:10094000FC028D818F3F19F060E00E94FC020F2DA8
:1009500010E08F8584FF25C06E0187E0C80ED11C92
:10096000F12CE12CB8010E2C02C0759567950A9404
:10097000E2F76170F60181916F010E94FC02FFEFC6
:10098000EF1AFF0A88E0E816F10461F7CE01DF9163
:10099000CF911F910F91FF90EF90DF90CF900C942B
:1009A0005004B80184E0759567958A95E1F7CE010A
:1009B0000E9466046F2DCE01DF91CF911F910F91A0
:1009C000FF90EF90DF90CF900C94660441E00E947E
:1009D000930481E090E0089540E00C9493040F9319
:1009E0001F93CF93DF93EC01623019F48F858860F9
:1009F0008F876B8B1C8A80E48D8B80E18E8B80E5EA
:100A00008F8B61E08C810E942A038D818F3F19F0CA
:100A100061E00E942A0361E08E810E942A038E0118
:100A200098012C1B3D0B8F8584FD0DC084E090E068
:100A30000F5F1F4F281739074CF461E0F8018681DA
:100A40000E942A03EDCF88E090E0F2CF8BE39DE097
:100A50000197F1F760E08C810E94FC0260E08E81DA
:100A60000E94FC028D818F3F19F060E00E94FC0221
:100A70006F8564FD39C063E0CE010E9466040BE41B
:100A800016E4C8010197F1F763E0CE010E94660405
:100A9000C8010197F1F763E0CE010E94660483E587
:100AA00092E00197F1F762E0CE010E9466046F8543
:100AB0006062CE010E94EC0484E0888B6CE0CE0181
:100AC0000E94EC0461E0CE010E94EC048BE39FE104
:100AD0000197F1F782E0898B66E0CE01DF91CF913B
:100AE0001F910F910C94EC046062CE010E94EC0403
:100AF0008BE496E40197F1F76F856062CE010E9466
:100B0000EC0483E592E00197F1F76F856062CE0116
:100B10000E94EC04CCCFFB0101900020E9F7319753
:100B2000AF01461B570BDC01ED91FC910280F38174
:100B3000E02D09948F929F92AF92BF920F931F93D3
:100B4000CF93DF93CDB7DEB7A1970FB6F894DEBF92
:100B50000FBECDBF19A2423008F44AE08E010F5DEE
:100B60001F4F842E912CB12CA12CA50194010E9421
:100B7000600AE62FB901CA01EA3004F5E05DD80148
:100B8000EE938D01232B242B252B79F790E080E029
:100B9000109729F0BD0187E691E00E948B05A19690
:100BA0000FB6F894DEBF0FBECDBFDF91CF911F917E
:100BB0000F91BF90AF909F908F900895E95CDFCF29
:100BC000CF92DF92EF92FF92CF93DF936B017C0184
:100BD0006DE287E691E00E943D02EC0166277727EF
:100BE000CB016C197D098E099F094AE00E949A0584
:100BF0008C0F9D1FDF91CF91FF90EF90DF90CF90F2
:100C00000895BC01990F880B990B4AE00C949A0542
:100C1000CF93DF93EC0189859A850E947A0B8E81B0
:100C20009F8197FD05C060E0DF91CF910C942A036E
:100C3000DF91CF9108951F920F920FB60F9211245A
:100C40002F933F934F935F936F937F938F939F93D4
:100C5000AF93BF93EF93FF9387E691E00E941B024F
:100C6000FF91EF91BF91AF919F918F917F916F9184
:100C70005F914F913F912F910F900FBE0F901F905A
:100C800018951F920F920FB60F9211242F938F93E6
:100C90009F93EF93FF93E0917701F091780180812A
:100CA000E0917D01F0917E0182FD1BC090818091D9
:100CB00080018F5F8F7320918101821741F0E09155
:100CC0008001F0E0E959FE4F958F80938001FF91FC
:100CD000EF919F918F912F910F900FBE0F901F90CA
:100CE00018958081F4CF1F920F920FB60F921124A6
:100CF0002F933F938F939F93AF93BF938091630103
:100D000090916401A0916501B091660130915E01FE
:100D100023E0230F2D3758F50196A11DB11D209317
:100D20005E018093630190936401A0936501B09389
:100D3000660180915F0190916001A0916101B09185
:100D400062010196A11DB11D80935F019093600126
:100D5000A0936101B0936201BF91AF919F918F9178
:100D60003F912F910F900FBE0F901F90189526E87E
:100D7000230F0296A11DB11DD2CF0F931F93CF93C6
:100D8000DF93E7E6F1E01382128288EE93E0A0E0C1
:100D9000B0E084839583A683B7838AE091E0918352
:100DA000808385EC90E09587848784EC90E097873A
:100DB000868780EC90E0918B808B81EC90E0938B28
:100DC000828B82EC90E0958B848B86EC90E0978B05
:100DD000868B118E128E138E148EE4E0F2E0168252
:100DE000178210861186128613861486158616863B
:100DF0001786108A118A128A138A148A158ACAE4FD
:100E0000D2E011E0188319821B821A821D821C8293
:100E10008FEF9FEF9F838E8318861A8619861B8714
:100E20001C8602E00D871E871F86188A198A1A8A77
:100E30008FA99EA92DA93CA94BA95AA9198E188E34
:100E40006CE171E07F8B6E8B5A8F5FEF5B8F4C8F05
:100E50003D8F2E8F9F8F88A319A21AA21BA21CA2BE
:100E60001DA261E080E692E00E94EF048AE08EA776
:100E700089E08FA788E088AB8EE089AB8CE08AABF5
:100E80008BE08BAB85E08CAB84E08DAB83E08EABED
:100E90000FAB1AAE1CAFDF91CF911F910F91089548
:100EA000CF93DF93CDB7DEB7C355D1090FB6F89412
:100EB000DEBF0FBECDBF789484B5826084BD84B59B
:100EC000816084BD85B5826085BD85B5816085BD45
:100ED00080916E00816080936E00109281008091FD
:100EE0008100826080938100809181008160809385
:100EF0008100809180008160809380008091B100AA
:100F000084608093B1008091B00081608093B000D4
:100F100080917A00846080937A0080917A00826068
:100F200080937A0080917A00816080937A0080912A
:100F30007A00806880937A001092C1001092460275
:100F40001092470210924802109249021092060233
:100F500010920702109208021092090268EB7BE0DF
:100F600080E090E00E94F6000E945B034B015C0170
:100F700038EEC32E33E0D32EE12CF12C0E945B031C
:100F8000681979098A099B09683E734081059105B2
:100F9000A8F321E0C21AD108E108F10838EE830E67
:100FA00033E0931EA11CB11CC114D104E104F1046F
:100FB00029F70E948D002FB7F894809163019091DA
:100FC0006401A0916501B09166012FBF8093060274
:100FD00090930702A0930802B093090264E271E0C3
:100FE00087E691E00E948B056AE070E080E090E087
:100FF0000E94F60011E010931A022FB7F894809126
:10100000630190916401A0916501B09166012FBFC9
:101010008093060290930702A0930802B0930902FE
:1010200065E371E087E691E00E948B050E948D00E8
:101030006CE371E087E691E00E948B0587E090E029
:101040000E9401066AE471E087E691E00E948B0548
:1010500083E090E00E9401066AE471E087E691E097
:101060000E948B054AE060E070E0CB010E949A0587
:101070006CE471E087E691E00E948B0519831A8287
:101080001C821B821E821D828FEF9FEF98878F83A9
:1010900019861B861A861C871D8602E00E871F870D
:1010A000188A198A1A8A1B8A88AD9FA92EA93DA978
:1010B0004CA95BA91A8E198E6CE171E0788F6F8B49
:1010C0005B8F5FEF5C8F4D8F3E8F2F8F98A389A32F
:1010D0001AA21BA21CA21DA21EA261E0CE0147966D
:1010E0000E94EF048AE08FA789E088AB88E089AB93
:1010F0008EE08AAB8CE08BAB8BE08CAB85E08DAB6C
:1011000084E08EAB83E08FAB08AF1BAE1DAF1FAE8C
:1011100027961FAE279761961CAE1DAE1EAE1FAE62
:1011200061972D968FAF2D972A961FAF2A972B96F2
:101130001FAE2B972C960FAF2C971EAF0CED11E026
:1011400024961FAF0EAF24978CED91E00E94DE0A2B
:1011500029969FAF8EAF2997009709F460C1FC01D3
:101160009801119221503040E1F787E790E02296F4
:101170009FAF8EAF22978AE090E026969FAF8EAF0A
:1011800026978FAD882341F061E08AE00E942A0310
:1011900060E08AE00E94FC02E8EBF0E0E491F0E01D
:1011A000EE0FFF1FEC55FF4F8591949163969FAF13
:1011B0008EAF6397EAE9F0E0E4916496EFAF64974D
:1011C00086E1FE01FE96DE01119601900D928A9550
:1011D000E1F7CE01CE960E94080686E1FE01319627
:1011E000AAE4B2E001900D928A95E1F7898D9A8D7B
:1011F00090936302809362028B8D809364028C8D46
:10120000809365028D8D80936602DE015E96E7E62F
:10121000F2E08D91819332E0EF36F307D1F78EA1A2
:1012200080936F028FA18093700288A580937102D2
:1012300089A5809372028AA5809373028BA58093FF
:1012400074028CA5809375028DA5809376028EA57D
:10125000809377028AE0FE01BF96A8E7B2E0019092
:101260000D928A95E1F789AD9AAD909383028093B0
:1012700082028BAD809384028CAD809385028DAD0C
:1012800080938602CE0101960E94080660E080915C
:101290007A020E942A0360E0809179020E942A0368
:1012A00060E080917B020E942A0362E080E692E087
:1012B0000E94EF04E1E0809173028111E0E0E1958A
:1012C000F0E0E65BFD4F62A5606880E692E00E9478
:1012D000EC046FE471E080E692E00E948B05E091FF
:1012E0007302E23008F0A4C0E150F0E0E65BFD4F8D
:1012F00062A5606880E692E00E94EC048091500252
:101300009091510297FD08C061E00E942A0360E0BD
:10131000809150020E94FC0281E080934B028091F8
:10132000530290915402892B11F00E94800382E3B2
:101330000E94B50080917A020E94D302DD24D394EA
:1013400088248A9483E0982EA12CB12C95E0E92E74
:10135000F12C00E010E0C090820280917A020E949D
:10136000D302181619060CF065C08C2D8D258093BC
:101370008202C0908302809179020E94D3021816E3
:1013800019060CF059C08C2D8D2580938302809115
:101390007B028E3008F08E508770806480937C00D2
:1013A00080917A00806480937A0080917A0086FD33
:1013B000FCCF2091780030917900AFEFB0E00E942F
:1013C000A10AA50194010E94820A809185028217D8
:1013D000130629F020938502822F0E94B500809188
:1013E0008202882359F18091860281111092840231
:1013F00080918402823009F455C070F58823A9F1E8
:10140000813009F448C00115110509F4A4CF0E94E8
:101410000702882309F49FCF0E9400009CCF2496E6
:101420001FAE1EAE249722961FAE1EAE2297A3CEED
:10143000E1E05BCF80E09BCF80E0A7CF809183028B
:10144000882309F38091840290E00196B7010E94FD
:10145000C40A80938402CCCF833049F1843099F65A
:1014600060E070E080E09FEF1AC040914E02509122
:101470004F0270E060E080915302909154020E940C
:10148000030C8091530290915402892B09F4BBCF35
:101490000E948003B8CF60E070E08FEF90E00E9480
:1014A0002701EFCF60E07FEF80E090E0F8CF6FEFB3
:1014B00070E080E090E0F3CF8AE492E00C940806BC
:1014C000A1E21A2EAA1BBB1BFD010DC0AA1FBB1F48
:1014D000EE1FFF1FA217B307E407F50720F0A21BBA
:1014E000B30BE40BF50B661F771F881F991F1A9427
:1014F00069F760957095809590959B01AC01BD0151
:10150000CF010895052E97FB1EF400940E94990ABE
:1015100057FD07D00E94600A07FC03D04EF40C94DC
:10152000990A50954095309521953F4F4F4F5F4F09
:10153000089590958095709561957F4F8F4F9F4F3F
:101540000895A29FB001B39FC001A39F700D811D9C
:101550001124911DB29F700D811D1124911D0895BC
:10156000AA1BBB1B51E107C0AA1FBB1FA617B707C9
:1015700010F0A61BB70B881F991F5A95A9F78095E5
:101580009095BC01CD01089597FB072E16F40094A9
:1015900007D077FD09D00E94B00A07FC05D03EF4C1
:1015A000909581959F4F0895709561957F4F08950F
:1015B000EE0FFF1F0590F491E02D09940F931F93F8
:1015C000CF93DF938230910510F482E090E0E091B8
:1015D0008902F0918A0230E020E0B0E0A0E030978C
:1015E00099F42115310509F44AC0281B390B243020
:1015F0003105D8F58A819B816115710589F1FB015F
:1016000093838283FE0111C0408151810281138145
:1016100048175907E0F04817590799F4109761F0F7
:1016200012960C93129713961C933296CF01DF916A
:10163000CF911F910F9108950093890210938A0210
:10164000F4CF2115310551F04217530738F0A901A5
:10165000DB019A01BD01DF01F801C1CFEF01F9CF34
:1016600090938A0280938902CDCFFE01E20FF31F8F
:10167000819391932250310939832883D7CF2091C8
:10168000870230918802232B41F42091020130918E
:10169000030130938802209387022091000130914A
:1016A00001012115310541F42DB73EB740910401E8
:1016B00050910501241B350BE0918702F0918802BF
:1016C000E217F307A0F42E1B3F0B2817390778F019
:1016D000AC014E5F5F4F2417350748F04E0F5F1F78
:1016E0005093880240938702819391939FCFF0E0BB
:1016F000E0E09CCFCF93DF930097E9F0FC013297B5
:1017000013821282A0918902B0918A02ED0130E029
:1017100020E01097A1F420813181820F931F209146
:101720008702309188022817390709F061C0F093C9
:101730008802E0938702DF91CF910895EA01CE17E6
:10174000DF07E8F54A815B819E0141155105B1F73C
:10175000E901FB83EA8349915991C40FD51FEC1726
:10176000FD0761F4808191810296840F951FE90144
:1017700099838883828193819B838A83F0E0E0E070
:1017800012968D919C9113970097B9F52D913C91EC
:101790001197CD010296820F931F209187023091FD
:1017A00088022817390739F6309751F510928A02C6
:1017B00010928902B0938802A0938702BCCFD38392
:1017C000C28340815181840F951FC817D90761F4E6
:1017D0004E5F5F4F88819981480F591F5183408325
:1017E0008A819B81938382832115310509F0B0CFD3
:1017F000F0938A02E09389029ECFFD01DC01C0CF05
:1018000013821282D7CFDC0101C06D93415050404A
:10181000E0F7089510E0C2E6D0E004C0FE010E94A7
:0E182000D80A2196C336D107C9F7F894FFCF36
:10182E0000008B028000000000003D029D01CA01F5
:10183E008A02FB01D901ED0100000000E6049D01C2
:10184E004D044C04564D4450565F317C315F564D1D
:10185E004450560A00564D4450525F0047434320B1
:10186E0076657273696F6E3A20002E000D0A004481
:0E187E0045534B204C4544204C4947485400EC
:00000001FF
